:1000000012C024C023C022C021C020C01FC01EC0F7
:100010001DC01CC01BC01AC019C018C017C016C014
:1000200015C014C013C011241FBECFE5D2E0DEBF3F
:10003000CDBF10E0A0E6B0E0EAECF0E002C0059031
:100040000D92A836B107D9F708D03DC0D9CFF894A2
:1000500080E888BD18BC78940895CF93DF9300D0D2
:1000600000D0CDB7DEB7F3DF8FEF8ABB80EF87BB61
:100070008091640090916500A0916600B091670046
:1000800089839A83AB83BC8383EB8BBB18BA80E0F4
:10009000282F30E0E1E0F0E0EC0FFD1FE20FF31F4E
:1000A00090819BBBF901E05AFF4F908198BB833050
:1000B00011F08F5F01C080E0EFE9FFE03197F1F7C9
:0A00C00000C00000E5CFF894FFCF68
:0800CA001020400888B7C96B43
:00000001FF
