:1000000012C021C020C01FC01EC01DC01CC01BC00C
:1000100037C019C018C017C016C015C014C013C00F
:1000200012C011C010C011241FBECFE5D2E0DEBF48
:10003000CDBF20E0A0E6B0E001C01D92A236B2071D
:10004000E1F753D058C0DCCFF89480E888BD18BCE5
:1000500078940895B898B99ABA9888B3836088BBA1
:1000600088E58DB91FB8809161008E7F8093610013
:10007000809161008D7F80936100109260000895EF
:100080001F920F920FB60F9211248F9380E48EB9B6
:10009000809161008160809361008FB180936000E6
:1000A0008F910F900FBE0F901F9018959EB19F706B
:1000B00039F0809161008260809361008FEF089534
:1000C000909161009E7F90936100909161009D7F6F
:1000D000909361008FB980E0089580916000089549
:1000E0008091610080FFFCCF0895AEDFB3DFF8DFC1
:0A00F000F4DFDCDFFCCFF894FFCF53
:00000001FF
